{
  "contractName": "AssetTracker",
  "abi": [
    {
      "anonymous": false,
      "inputs": [
        {
          "indexed": false,
          "internalType": "uint256",
          "name": "id",
          "type": "uint256"
        },
        {
          "indexed": false,
          "internalType": "string",
          "name": "manufacturer",
          "type": "string"
        },
        {
          "indexed": false,
          "internalType": "string",
          "name": "status",
          "type": "string"
        }
      ],
      "name": "AssetCreate",
      "type": "event"
    },
    {
      "anonymous": false,
      "inputs": [
        {
          "indexed": false,
          "internalType": "uint256",
          "name": "id",
          "type": "uint256"
        },
        {
          "indexed": false,
          "internalType": "string",
          "name": "newOwner",
          "type": "string"
        }
      ],
      "name": "AssetTransfer",
      "type": "event"
    },
    {
      "constant": true,
      "inputs": [
        {
          "internalType": "uint256",
          "name": "",
          "type": "uint256"
        }
      ],
      "name": "AssetStore",
      "outputs": [
        {
          "internalType": "uint256",
          "name": "id",
          "type": "uint256"
        },
        {
          "internalType": "string",
          "name": "batchNo",
          "type": "string"
        },
        {
          "internalType": "string",
          "name": "name",
          "type": "string"
        },
        {
          "internalType": "string",
          "name": "description",
          "type": "string"
        },
        {
          "internalType": "string",
          "name": "manufacturer",
          "type": "string"
        },
        {
          "internalType": "uint256",
          "name": "statusCount",
          "type": "uint256"
        }
      ],
      "payable": false,
      "stateMutability": "view",
      "type": "function"
    },
    {
      "constant": true,
      "inputs": [],
      "name": "assetCount",
      "outputs": [
        {
          "internalType": "uint256",
          "name": "",
          "type": "uint256"
        }
      ],
      "payable": false,
      "stateMutability": "view",
      "type": "function"
    },
    {
      "constant": false,
      "inputs": [
        {
          "internalType": "string",
          "name": "_batchNo",
          "type": "string"
        },
        {
          "internalType": "string",
          "name": "_name",
          "type": "string"
        },
        {
          "internalType": "string",
          "name": "_description",
          "type": "string"
        },
        {
          "internalType": "string",
          "name": "_manufacturer",
          "type": "string"
        },
        {
          "internalType": "string",
          "name": "_owner",
          "type": "string"
        },
        {
          "internalType": "string",
          "name": "_status",
          "type": "string"
        }
      ],
      "name": "createAsset",
      "outputs": [
        {
          "internalType": "uint256",
          "name": "",
          "type": "uint256"
        }
      ],
      "payable": false,
      "stateMutability": "nonpayable",
      "type": "function"
    },
    {
      "constant": true,
      "inputs": [
        {
          "internalType": "uint256",
          "name": "_id",
          "type": "uint256"
        }
      ],
      "name": "getAsset",
      "outputs": [
        {
          "internalType": "string",
          "name": "",
          "type": "string"
        },
        {
          "internalType": "string",
          "name": "",
          "type": "string"
        },
        {
          "internalType": "string",
          "name": "",
          "type": "string"
        },
        {
          "internalType": "string",
          "name": "",
          "type": "string"
        },
        {
          "internalType": "string",
          "name": "",
          "type": "string"
        },
        {
          "internalType": "string",
          "name": "",
          "type": "string"
        }
      ],
      "payable": false,
      "stateMutability": "view",
      "type": "function"
    },
    {
      "constant": false,
      "inputs": [
        {
          "internalType": "uint256",
          "name": "_id",
          "type": "uint256"
        },
        {
          "internalType": "string",
          "name": "_newOwner",
          "type": "string"
        },
        {
          "internalType": "string",
          "name": "_status",
          "type": "string"
        }
      ],
      "name": "transferAsset",
      "outputs": [
        {
          "internalType": "string",
          "name": "",
          "type": "string"
        }
      ],
      "payable": false,
      "stateMutability": "nonpayable",
      "type": "function"
    },
    {
      "constant": true,
      "inputs": [],
      "name": "getAssetCount",
      "outputs": [
        {
          "internalType": "uint256",
          "name": "",
          "type": "uint256"
        }
      ],
      "payable": false,
      "stateMutability": "view",
      "type": "function"
    },
    {
      "constant": true,
      "inputs": [
        {
          "internalType": "uint256",
          "name": "_id",
          "type": "uint256"
        },
        {
          "internalType": "uint256",
          "name": "_statusCount",
          "type": "uint256"
        }
      ],
      "name": "getStatus",
      "outputs": [
        {
          "internalType": "uint256",
          "name": "",
          "type": "uint256"
        },
        {
          "internalType": "string",
          "name": "",
          "type": "string"
        },
        {
          "internalType": "string",
          "name": "",
          "type": "string"
        }
      ],
      "payable": false,
      "stateMutability": "view",
      "type": "function"
    }
  ],
  "bytecode": "0x6080604052600060015534801561001557600080fd5b50611a5a806100256000396000f3fe608060405234801561001057600080fd5b506004361061007d5760003560e01c8063a745da651161005b578063a745da651461046e578063eac8f5b814610592578063eafe7a7414610855578063ed0bb96b146108735761007d565b806369e94f9f146100825780638e938ced1461027b578063a0aead4d14610450575b600080fd5b6100ae6004803603602081101561009857600080fd5b8101908080359060200190929190505050610c35565b604051808781526020018060200180602001806020018060200186815260200185810385528a818151815260200191508051906020019080838360005b838110156101065780820151818401526020810190506100eb565b50505050905090810190601f1680156101335780820380516001836020036101000a031916815260200191505b50858103845289818151815260200191508051906020019080838360005b8381101561016c578082015181840152602081019050610151565b50505050905090810190601f1680156101995780820380516001836020036101000a031916815260200191505b50858103835288818151815260200191508051906020019080838360005b838110156101d25780820151818401526020810190506101b7565b50505050905090810190601f1680156101ff5780820380516001836020036101000a031916815260200191505b50858103825287818151815260200191508051906020019080838360005b8381101561023857808201518184015260208101905061021d565b50505050905090810190601f1680156102655780820380516001836020036101000a031916815260200191505b509a505050505050505050505060405180910390f35b6103d56004803603606081101561029157600080fd5b8101908080359060200190929190803590602001906401000000008111156102b857600080fd5b8201836020820111156102ca57600080fd5b803590602001918460018302840111640100000000831117156102ec57600080fd5b91908080601f016020809104026020016040519081016040528093929190818152602001838380828437600081840152601f19601f8201169050808301925050505050505091929192908035906020019064010000000081111561034f57600080fd5b82018360208201111561036157600080fd5b8035906020019184600183028401116401000000008311171561038357600080fd5b91908080601f016020809104026020016040519081016040528093929190818152602001838380828437600081840152601f19601f820116905080830192505050505050509192919290505050610ed1565b6040518080602001828103825283818151815260200191508051906020019080838360005b838110156104155780820151818401526020810190506103fa565b50505050905090810190601f1680156104425780820380516001836020036101000a031916815260200191505b509250505060405180910390f35b610458611040565b6040518082815260200191505060405180910390f35b6104a46004803603604081101561048457600080fd5b81019080803590602001909291908035906020019092919050505061104a565b604051808481526020018060200180602001838103835285818151815260200191508051906020019080838360005b838110156104ee5780820151818401526020810190506104d3565b50505050905090810190601f16801561051b5780820380516001836020036101000a031916815260200191505b50838103825284818151815260200191508051906020019080838360005b83811015610554578082015181840152602081019050610539565b50505050905090810190601f1680156105815780820380516001836020036101000a031916815260200191505b509550505050505060405180910390f35b6105be600480360360208110156105a857600080fd5b81019080803590602001909291905050506111fb565b6040518080602001806020018060200180602001806020018060200187810387528d818151815260200191508051906020019080838360005b838110156106125780820151818401526020810190506105f7565b50505050905090810190601f16801561063f5780820380516001836020036101000a031916815260200191505b5087810386528c818151815260200191508051906020019080838360005b8381101561067857808201518184015260208101905061065d565b50505050905090810190601f1680156106a55780820380516001836020036101000a031916815260200191505b5087810385528b818151815260200191508051906020019080838360005b838110156106de5780820151818401526020810190506106c3565b50505050905090810190601f16801561070b5780820380516001836020036101000a031916815260200191505b5087810384528a818151815260200191508051906020019080838360005b83811015610744578082015181840152602081019050610729565b50505050905090810190601f1680156107715780820380516001836020036101000a031916815260200191505b50878103835289818151815260200191508051906020019080838360005b838110156107aa57808201518184015260208101905061078f565b50505050905090810190601f1680156107d75780820380516001836020036101000a031916815260200191505b50878103825288818151815260200191508051906020019080838360005b838110156108105780820151818401526020810190506107f5565b50505050905090810190601f16801561083d5780820380516001836020036101000a031916815260200191505b509c5050505050505050505050505060405180910390f35b61085d611691565b6040518082815260200191505060405180910390f35b610c1f600480360360c081101561088957600080fd5b81019080803590602001906401000000008111156108a657600080fd5b8201836020820111156108b857600080fd5b803590602001918460018302840111640100000000831117156108da57600080fd5b91908080601f016020809104026020016040519081016040528093929190818152602001838380828437600081840152601f19601f8201169050808301925050505050505091929192908035906020019064010000000081111561093d57600080fd5b82018360208201111561094f57600080fd5b8035906020019184600183028401116401000000008311171561097157600080fd5b91908080601f016020809104026020016040519081016040528093929190818152602001838380828437600081840152601f19601f820116905080830192505050505050509192919290803590602001906401000000008111156109d457600080fd5b8201836020820111156109e657600080fd5b80359060200191846001830284011164010000000083111715610a0857600080fd5b91908080601f016020809104026020016040519081016040528093929190818152602001838380828437600081840152601f19601f82011690508083019250505050505050919291929080359060200190640100000000811115610a6b57600080fd5b820183602082011115610a7d57600080fd5b80359060200191846001830284011164010000000083111715610a9f57600080fd5b91908080601f016020809104026020016040519081016040528093929190818152602001838380828437600081840152601f19601f82011690508083019250505050505050919291929080359060200190640100000000811115610b0257600080fd5b820183602082011115610b1457600080fd5b80359060200191846001830284011164010000000083111715610b3657600080fd5b91908080601f016020809104026020016040519081016040528093929190818152602001838380828437600081840152601f19601f82011690508083019250505050505050919291929080359060200190640100000000811115610b9957600080fd5b820183602082011115610bab57600080fd5b80359060200191846001830284011164010000000083111715610bcd57600080fd5b91908080601f016020809104026020016040519081016040528093929190818152602001838380828437600081840152601f19601f820116905080830192505050505050509192919290505050611697565b6040518082815260200191505060405180910390f35b6000602052806000526040600020600091509050806000015490806001018054600181600116156101000203166002900480601f016020809104026020016040519081016040528092919081815260200182805460018160011615610100020316600290048015610ce75780601f10610cbc57610100808354040283529160200191610ce7565b820191906000526020600020905b815481529060010190602001808311610cca57829003601f168201915b505050505090806002018054600181600116156101000203166002900480601f016020809104026020016040519081016040528092919081815260200182805460018160011615610100020316600290048015610d855780601f10610d5a57610100808354040283529160200191610d85565b820191906000526020600020905b815481529060010190602001808311610d6857829003601f168201915b505050505090806003018054600181600116156101000203166002900480601f016020809104026020016040519081016040528092919081815260200182805460018160011615610100020316600290048015610e235780601f10610df857610100808354040283529160200191610e23565b820191906000526020600020905b815481529060010190602001808311610e0657829003601f168201915b505050505090806004018054600181600116156101000203166002900480601f016020809104026020016040519081016040528092919081815260200182805460018160011615610100020316600290048015610ec15780601f10610e9657610100808354040283529160200191610ec1565b820191906000526020600020905b815481529060010190602001808311610ea457829003601f168201915b5050505050908060050154905086565b6060600080858152602001908152602001600020600501600081548092919060010191905055506040518060600160405280428152602001838152602001848152506000808681526020019081526020016000206006016000806000888152602001908152602001600020600501548152602001908152602001600020600082015181600001556020820151816001019080519060200190610f7492919061195f565b506040820151816002019080519060200190610f9192919061195f565b509050507f5e85e4ccc7a51ddb56b745a755d5cf7d97270d005bc66e7cce2d17d73249e9ea84846040518083815260200180602001828103825283818151815260200191508051906020019080838360005b83811015610ffe578082015181840152602081019050610fe3565b50505050905090810190601f16801561102b5780820380516001836020036101000a031916815260200191505b50935050505060405180910390a19392505050565b6000600154905090565b60006060806110576119df565b600080878152602001908152602001600020600601600086815260200190815260200160002060405180606001604052908160008201548152602001600182018054600181600116156101000203166002900480601f01602080910402602001604051908101604052809291908181526020018280546001816001161561010002031660029004801561112b5780601f106111005761010080835404028352916020019161112b565b820191906000526020600020905b81548152906001019060200180831161110e57829003601f168201915b50505050508152602001600282018054600181600116156101000203166002900480601f0160208091040260200160405190810160405280929190818152602001828054600181600116156101000203166002900480156111cd5780601f106111a2576101008083540402835291602001916111cd565b820191906000526020600020905b8154815290600101906020018083116111b057829003601f168201915b5050505050815250509050806000015181602001518260400151819150809050935093509350509250925092565b6060806060806060806000808881526020019081526020016000206001016000808981526020019081526020016000206002016000808a81526020019081526020016000206004016000808b815260200190815260200160002060060160008060008d81526020019081526020016000206005015481526020019081526020016000206002016000808c815260200190815260200160002060060160008060008e81526020019081526020016000206005015481526020019081526020016000206001016000808d8152602001908152602001600020600301858054600181600116156101000203166002900480601f0160208091040260200160405190810160405280929190818152602001828054600181600116156101000203166002900480156113695780601f1061133e57610100808354040283529160200191611369565b820191906000526020600020905b81548152906001019060200180831161134c57829003601f168201915b50505050509550848054600181600116156101000203166002900480601f0160208091040260200160405190810160405280929190818152602001828054600181600116156101000203166002900480156114055780601f106113da57610100808354040283529160200191611405565b820191906000526020600020905b8154815290600101906020018083116113e857829003601f168201915b50505050509450838054600181600116156101000203166002900480601f0160208091040260200160405190810160405280929190818152602001828054600181600116156101000203166002900480156114a15780601f10611476576101008083540402835291602001916114a1565b820191906000526020600020905b81548152906001019060200180831161148457829003601f168201915b50505050509350828054600181600116156101000203166002900480601f01602080910402602001604051908101604052809291908181526020018280546001816001161561010002031660029004801561153d5780601f106115125761010080835404028352916020019161153d565b820191906000526020600020905b81548152906001019060200180831161152057829003601f168201915b50505050509250818054600181600116156101000203166002900480601f0160208091040260200160405190810160405280929190818152602001828054600181600116156101000203166002900480156115d95780601f106115ae576101008083540402835291602001916115d9565b820191906000526020600020905b8154815290600101906020018083116115bc57829003601f168201915b50505050509150808054600181600116156101000203166002900480601f0160208091040260200160405190810160405280929190818152602001828054600181600116156101000203166002900480156116755780601f1061164a57610100808354040283529160200191611675565b820191906000526020600020905b81548152906001019060200180831161165857829003601f168201915b5050505050905095509550955095509550955091939550919395565b60015481565b60006001600081548092919060010191905055506040518060c0016040528060015481526020018881526020018781526020018681526020018581526020016000815250600080600154815260200190815260200160002060008201518160000155602082015181600101908051906020019061171592919061195f565b50604082015181600201908051906020019061173292919061195f565b50606082015181600301908051906020019061174f92919061195f565b50608082015181600401908051906020019061176c92919061195f565b5060a0820151816005015590505060008060015481526020019081526020016000206005016000815480929190600101919050555060405180606001604052804281526020018381526020018481525060008060015481526020019081526020016000206006016000806000600154815260200190815260200160002060050154815260200190815260200160002060008201518160000155602082015181600101908051906020019061182192919061195f565b50604082015181600201908051906020019061183e92919061195f565b509050507fb4bf1d5e0466b8936db2b4da84f032fa677558bd277aa5bd4e69c4201f24585d6001548584604051808481526020018060200180602001838103835285818151815260200191508051906020019080838360005b838110156118b2578082015181840152602081019050611897565b50505050905090810190601f1680156118df5780820380516001836020036101000a031916815260200191505b50838103825284818151815260200191508051906020019080838360005b838110156119185780820151818401526020810190506118fd565b50505050905090810190601f1680156119455780820380516001836020036101000a031916815260200191505b509550505050505060405180910390a19695505050505050565b828054600181600116156101000203166002900490600052602060002090601f016020900481019282601f106119a057805160ff19168380011785556119ce565b828001600101855582156119ce579182015b828111156119cd5782518255916020019190600101906119b2565b5b5090506119db9190611a00565b5090565b60405180606001604052806000815260200160608152602001606081525090565b611a2291905b80821115611a1e576000816000905550600101611a06565b5090565b9056fea265627a7a72315820c517839dc3ce53234e048c77708ebcb6e4e52f53d8f6ba273de234afbd47bb3464736f6c63430005100032",
  "source": "// SPDX-License-Identifier: GPL-3.0\n\npragma solidity >= 0.5.0 < 0.9.0;\nimport \"./AssetLibrary.sol\";\n\ncontract AssetTracker {\n    \n    mapping(uint => AssetLibrary.Asset) public AssetStore;\n    uint256 public assetCount= 0;\n    \n    function createAsset(\n        string memory _batchNo,\n        string memory _name,\n        string memory _description,\n        string memory _manufacturer,\n        string memory _owner,\n        string memory _status\n        ) public returns(uint256) {\n        \n        assetCount++;\n        AssetStore[assetCount]= AssetLibrary.Asset(assetCount, _batchNo, _name, _description, _manufacturer , 0);\n        AssetStore[assetCount].statusCount++;\n        AssetStore[assetCount].status[AssetStore[assetCount].statusCount]=AssetLibrary.Status(block.timestamp, _status, _owner);\n        emit AssetCreate(assetCount, _manufacturer, _status);\n    }\n    \n    \n    function getAsset(uint _id) view public returns(string memory, string memory, string memory, string memory, string memory, string memory) {\n        return (AssetStore[_id].batchNo, AssetStore[_id].name, AssetStore[_id].manufacturer, AssetStore[_id].status[AssetStore[_id].statusCount].owner, AssetStore[_id].status[AssetStore[_id].statusCount].status, AssetStore[_id].description);\n    }\n    \n    function transferAsset(uint _id, string memory _newOwner, string memory _status) public returns(string memory) {\n        AssetStore[_id].statusCount++;\n        AssetStore[_id].status[AssetStore[_id].statusCount]=AssetLibrary.Status(block.timestamp, _status, _newOwner);\n        emit AssetTransfer(_id, _newOwner);\n    }\n    \n    function getAssetCount() view public returns(uint) {\n        return assetCount;\n    }\n    \n    function getStatus(uint _id, uint _statusCount) view public returns(uint, string memory, string memory) {\n        AssetLibrary.Status memory s= AssetStore[_id].status[_statusCount];\n        return (s.time, s.status, s.owner);\n    }\n    \n    event AssetCreate(uint id, string manufacturer, string status);\n    event AssetTransfer(uint id, string newOwner);\n}",
  "sourcePath": "/home/akhil/Desktop/SPIT/Asset-Management-Blockchain-Mini-Project/contracts/AssetTracker.sol",
  "compiler": {
    "name": "solc",
    "version": "0.5.16+commit.9c3226ce.Emscripten.clang"
  },
  "schemaVersion": "3.4.6",
  "updatedAt": "2022-11-02T20:31:14.485Z",
  "networkType": "ethereum",
  "devdoc": {
    "methods": {}
  },
  "userdoc": {
    "methods": {}
  }
}